{"abi":[{"type":"function","name":"LoopFactory_init","inputs":[{"name":"diamondFactory","type":"address","internalType":"address"},{"name":"facetRegistry","type":"address","internalType":"address"}],"outputs":[],"stateMutability":"nonpayable"},{"type":"function","name":"createLoop","inputs":[{"name":"organization","type":"address","internalType":"address"},{"name":"token","type":"address","internalType":"address"},{"name":"periodLength","type":"uint256","internalType":"uint256"},{"name":"percentPerPeriod","type":"uint256","internalType":"uint256"}],"outputs":[{"name":"newLoop","type":"address","internalType":"address"}],"stateMutability":"nonpayable"},{"type":"function","name":"getLoopsByOrganization","inputs":[{"name":"organization","type":"address","internalType":"address"}],"outputs":[{"name":"","type":"address[]","internalType":"address[]"}],"stateMutability":"view"},{"type":"event","name":"FunctionAccessChanged","inputs":[{"name":"functionSig","type":"bytes4","indexed":true,"internalType":"bytes4"},{"name":"role","type":"uint8","indexed":true,"internalType":"uint8"},{"name":"enabled","type":"bool","indexed":false,"internalType":"bool"}],"anonymous":false},{"type":"event","name":"Initialized","inputs":[{"name":"version","type":"uint64","indexed":false,"internalType":"uint64"}],"anonymous":false},{"type":"event","name":"LoopCreated","inputs":[{"name":"loopId","type":"uint256","indexed":true,"internalType":"uint256"},{"name":"loopAddress","type":"address","indexed":false,"internalType":"address"},{"name":"organization","type":"address","indexed":false,"internalType":"address"},{"name":"token","type":"address","indexed":false,"internalType":"address"},{"name":"periodLength","type":"uint256","indexed":false,"internalType":"uint256"},{"name":"percentPerPeriod","type":"uint256","indexed":false,"internalType":"uint256"}],"anonymous":false},{"type":"event","name":"UserRoleUpdated","inputs":[{"name":"user","type":"address","indexed":true,"internalType":"address"},{"name":"role","type":"uint8","indexed":true,"internalType":"uint8"},{"name":"enabled","type":"bool","indexed":false,"internalType":"bool"}],"anonymous":false},{"type":"error","name":"AccessControl_CallerIsNotAuthorized","inputs":[]},{"type":"error","name":"AccessControl_CannotRemoveAdmin","inputs":[]},{"type":"error","name":"CallerIsNotAuthorized","inputs":[]},{"type":"error","name":"CallerIsNotOwner","inputs":[]},{"type":"error","name":"DelegateNotAllowed","inputs":[]},{"type":"error","name":"InvalidInitialization","inputs":[]},{"type":"error","name":"NotInitializing","inputs":[]},{"type":"error","name":"OnlyDelegate","inputs":[]},{"type":"error","name":"ReentrancyGuardReentrantCall","inputs":[]}],"bytecode":{"object":"0x60a080604052346100c257306080527ff0c57e16840df040f15088dc2f81fe391c3923bec73e23a9662efc9c229c6a009081549060ff8260401c166100b357506001600160401b036002600160401b03198282160161006e575b604051610f2890816100c78239608051815050f35b6001600160401b031990911681179091556040519081527fc7f505b2f371ae2175ee4913f4499e1f2633a7b5936321eed1cdaeb6115181d290602090a15f8080610059565b63f92ee8a960e01b8152600490fd5b5f80fdfe60806040526004361015610011575f80fd5b5f3560e01c80634880dffa14610c5157806350518a7614610b2157636eeb33821461003a575f80fd5b34610b1d576080366003190112610b1d57610053610d39565b61005b610d4f565b90335f527fa02c6c64ccfececbbc818fa1413a9ddbfdcd7555c7114a15b2eae285fdd9cbd960205260405f205415610abb577fe9baf387935b2453f0d1db74d7b921e075e9d177999c6692684a59c9ac9f888a546001600160a01b03168015610a62577fe9baf387935b2453f0d1db74d7b921e075e9d177999c6692684a59c9ac9f888b546001600160a01b0316918215610a0a57604051637f004aaf60e11b8082526307e4c70760e21b600483015294602082602481885afa918215610762575f926109e9575b50604051868152637a0ed62760e01b600482015292602084602481895afa938415610762575f946109c8575b5060405196875263252a310360e01b6004880152602087602481895afa968715610762575f976109a7575b506001600160a01b03831615610953576001600160a01b038416156108fd576001600160a01b038716156108b957604051946101b586610d9d565b600386525f5b60608110156101ee576020906040516101d381610d65565b5f81525f838201526060604082015282828a010152016101bb565b50909192949395604051633074a07960e21b815260018060a01b03871660048201525f81602481855afa908115610762575f9161089f575b506040519061023482610d65565b6001600160a01b03881682525f6020830152604082015261025486610ec5565b5261025e85610ec5565b50604051633074a07960e21b81526001600160a01b03881660048201525f81602481855afa918215610762576024925f928391610885575b50604051906102a482610d65565b6001600160a01b038b1682526020820184905260408201526102c588610ed2565b526102cf87610ed2565b50604051633074a07960e21b81526001600160a01b038b16600482015292839182905afa908115610762575f91610863575b506040519061030f82610d65565b6001600160a01b03891682525f6020830152604082015261032f85610ee2565b5261033984610ee2565b506040519661034788610d9d565b600388525f5b60608082101561037a576040516020929161036782610d81565b5f82528382015282828c0101520161034d565b505087908787604051637089a9f960e11b60208201526004815261039d81610d81565b604051916103aa83610d81565b6001600160a01b0316825260208201526103c384610ec5565b526103cd83610ec5565b5060405163feb7ab4f60e01b6020820152600481526103eb81610d81565b604051916103f883610d81565b6001600160a01b03168252602082015261041183610ed2565b5261041b82610ed2565b50604051631466943760e31b602082015260018060a01b038516602482015260018060a01b038616604482015260443560648201526064356084820152608481528060c081011067ffffffffffffffff60c0830111176107095760c091828201604052610489838301610d81565b6001600160a01b031691810191825260e08101526104a682610ee2565b526104b081610ee2565b506040519081604081019160208083015280518093526060820192602060608260051b8501019201935f905b82821061081e575050506104f9925003601f198101835282610db9565b6040519461050686610d65565b855273d1a302d1a302d1a302d1a302d1a302d1a302d1a3602086015260408501526040518094630e27019560e41b825260206004830152608482019080519160606024850152825180915260a4840190602060a48260051b8701019401915f905b82821061076d57505050505f836105a3602096946040839560018060a01b038a8201511660448601520151602319848303016064850152610dfa565b03925af1928315610762575f93610731575b507fe9baf387935b2453f0d1db74d7b921e075e9d177999c6692684a59c9ac9f888c805491905f19831461071d576001830190555f8281527fe9baf387935b2453f0d1db74d7b921e075e9d177999c6692684a59c9ac9f888d6020908152604080832080546001600160a01b039889166001600160a01b0319918216811790925597851684527fe9baf387935b2453f0d1db74d7b921e075e9d177999c6692684a59c9ac9f888e909252909120909390918254916801000000000000000083101561070957600183018085558310156106f5576020968660a0947fdf552332d37e511dd12da9e39e646fac2678bc5c3248353f4fafbeca094931e2965f52895f20019182541617905560405191868352600180851b031687830152600180841b0316604082015260443560608201526064356080820152a2604051908152f35b634e487b7160e01b5f52603260045260245ffd5b634e487b7160e01b5f52604160045260245ffd5b634e487b7160e01b5f52601160045260245ffd5b61075491935060203d60201161075b575b61074c8183610db9565b810190610ddb565b91836105b5565b503d610742565b6040513d5f823e3d90fd5b8a860360a319018152835180516001600160a01b031687526020810151949750949592949193909291600382101561080a576040916020840152015190606060408201526020608060608301928451809452019201905f905b8082106107e757505050602080600192970192019201899594939192610567565b82516001600160e01b0319168452602093840193909201916001909101906107c6565b634e487b7160e01b5f52602160045260245ffd5b91935091602080610853600193605f198a82030186526040838a51878060a01b03815116845201519181858201520190610dfa565b96019201920185939194926104dc565b61087f91503d805f833e6108778183610db9565b810190610e38565b5f610301565b61089991503d8085833e6108778183610db9565b5f610296565b6108b391503d805f833e6108778183610db9565b5f610226565b606460405162461bcd60e51b815260206004820152602060248201527f4c6f6f70466163746f72793a204c6f6f704661636574206e6f7420666f756e646044820152fd5b60405162461bcd60e51b815260206004820152602860248201527f4c6f6f70466163746f72793a204469616d6f6e644c6f7570654661636574206e6044820152671bdd08199bdd5b9960c21b6064820152608490fd5b60405162461bcd60e51b815260206004820152602660248201527f4c6f6f70466163746f72793a204469616d6f6e644375744661636574206e6f7460448201526508199bdd5b9960d21b6064820152608490fd5b6109c191975060203d60201161075b5761074c8183610db9565b955f61017a565b6109e291945060203d60201161075b5761074c8183610db9565b925f61014f565b610a0391925060203d60201161075b5761074c8183610db9565b905f610123565b60405162461bcd60e51b815260206004820152602a60248201527f4c6f6f70466163746f72793a20496e76616c69642046616365745265676973746044820152697279206164647265737360b01b6064820152608490fd5b60405162461bcd60e51b815260206004820152602b60248201527f4c6f6f70466163746f72793a20496e76616c6964204469616d6f6e644661637460448201526a6f7279206164647265737360a81b6064820152608490fd5b60405162461bcd60e51b815260206004820152603460248201527f4c6f6f70466163746f72793a2043616c6c6572206973206e6f7420612072656760448201527334b9ba32b932b21027b933b0b734bd30ba34b7b760611b6064820152608490fd5b5f80fd5b34610b1d576040366003190112610b1d57610b3a610d39565b610b42610d4f565b9060ff7ff0c57e16840df040f15088dc2f81fe391c3923bec73e23a9662efc9c229c6a005460401c1615610c3f57335f527f01a4eee68dd85ae21f7af43541cdad31dffdda01c908cfeea5c0dd9e8cbc10a060205260405f20600181541790555f604051600181527f4c9bdd0c8e073eb5eda2250b18d8e5121ff27b62064fbeeeed4869bb99bc5bf260203392a37fe9baf387935b2453f0d1db74d7b921e075e9d177999c6692684a59c9ac9f888a80546001600160a01b039283166001600160a01b0319918216179091557fe9baf387935b2453f0d1db74d7b921e075e9d177999c6692684a59c9ac9f888b8054939092169216919091179055005b604051631afcd79f60e31b8152600490fd5b34610b1d57602080600319360112610b1d57610ca6610c6e610d39565b6001600160a01b03165f9081527fe9baf387935b2453f0d1db74d7b921e075e9d177999c6692684a59c9ac9f888e6020526040902090565b604051908183825491828152019081925f52845f20905f5b86828210610d1c578686610cd482880383610db9565b60405192839281840190828552518091526040840192915f5b828110610cfc57505050500390f35b83516001600160a01b031685528695509381019392810192600101610ced565b83546001600160a01b031685529093019260019283019201610cbe565b600435906001600160a01b0382168203610b1d57565b602435906001600160a01b0382168203610b1d57565b6060810190811067ffffffffffffffff82111761070957604052565b6040810190811067ffffffffffffffff82111761070957604052565b6080810190811067ffffffffffffffff82111761070957604052565b90601f8019910116810190811067ffffffffffffffff82111761070957604052565b90816020910312610b1d57516001600160a01b0381168103610b1d5790565b91908251928382525f5b848110610e24575050825f602080949584010152601f8019910116010190565b602081830181015184830182015201610e04565b906020908183820312610b1d57825167ffffffffffffffff93848211610b1d570181601f82011215610b1d578051938411610709578360051b9060405194610e8285840187610db9565b85528380860192820101928311610b1d578301905b828210610ea5575050505090565b81516001600160e01b031981168103610b1d578152908301908301610e97565b8051156106f55760200190565b8051600110156106f55760400190565b8051600210156106f5576060019056fea2646970667358221220a3acab8c3060c8ef437fa93be78467b69b055397cf032d47e01123c7d712f6f564736f6c63430008140033","linkReferences":{}},"methodIdentifiers":{"LoopFactory_init(address,address)":"50518a76","createLoop(address,address,uint256,uint256)":"6eeb3382","getLoopsByOrganization(address)":"4880dffa"},"id":23}