{"abi":[{"type":"function","name":"ADMIN_ROLE","inputs":[],"outputs":[{"name":"","type":"bytes32","internalType":"bytes32"}],"stateMutability":"view"},{"type":"function","name":"OrganizationFactory_init","inputs":[{"name":"diamondFactory","type":"address","internalType":"address"},{"name":"facetRegistry","type":"address","internalType":"address"}],"outputs":[],"stateMutability":"nonpayable"},{"type":"function","name":"createOrganization","inputs":[{"name":"name","type":"string","internalType":"string"},{"name":"admin","type":"address","internalType":"address"},{"name":"description","type":"string","internalType":"string"}],"outputs":[{"name":"","type":"address","internalType":"address"}],"stateMutability":"nonpayable"},{"type":"function","name":"getOrganizationById","inputs":[{"name":"id","type":"uint256","internalType":"uint256"}],"outputs":[{"name":"","type":"address","internalType":"address"}],"stateMutability":"view"},{"type":"function","name":"getOrganizationCount","inputs":[],"outputs":[{"name":"","type":"uint256","internalType":"uint256"}],"stateMutability":"view"},{"type":"event","name":"FunctionAccessChanged","inputs":[{"name":"functionSig","type":"bytes4","indexed":true,"internalType":"bytes4"},{"name":"role","type":"uint8","indexed":true,"internalType":"uint8"},{"name":"enabled","type":"bool","indexed":false,"internalType":"bool"}],"anonymous":false},{"type":"event","name":"Initialized","inputs":[{"name":"version","type":"uint64","indexed":false,"internalType":"uint64"}],"anonymous":false},{"type":"event","name":"OrganizationCreated","inputs":[{"name":"id","type":"uint256","indexed":true,"internalType":"uint256"},{"name":"organizationAddress","type":"address","indexed":true,"internalType":"address"},{"name":"name","type":"string","indexed":false,"internalType":"string"},{"name":"admin","type":"address","indexed":true,"internalType":"address"},{"name":"description","type":"string","indexed":false,"internalType":"string"}],"anonymous":false},{"type":"event","name":"UserRoleUpdated","inputs":[{"name":"user","type":"address","indexed":true,"internalType":"address"},{"name":"role","type":"uint8","indexed":true,"internalType":"uint8"},{"name":"enabled","type":"bool","indexed":false,"internalType":"bool"}],"anonymous":false},{"type":"error","name":"AccessControl_CallerIsNotAuthorized","inputs":[]},{"type":"error","name":"AccessControl_CannotRemoveAdmin","inputs":[]},{"type":"error","name":"CallerIsNotAuthorized","inputs":[]},{"type":"error","name":"CallerIsNotOwner","inputs":[]},{"type":"error","name":"DelegateNotAllowed","inputs":[]},{"type":"error","name":"InvalidInitialization","inputs":[]},{"type":"error","name":"NotInitializing","inputs":[]},{"type":"error","name":"OnlyDelegate","inputs":[]},{"type":"error","name":"ReentrancyGuardReentrantCall","inputs":[]}],"bytecode":{"object":"0x60a080604052346100c257306080527ff0c57e16840df040f15088dc2f81fe391c3923bec73e23a9662efc9c229c6a009081549060ff8260401c166100b357506001600160401b036002600160401b03198282160161006e575b604051610fc490816100c78239608051815050f35b6001600160401b031990911681179091556040519081527fc7f505b2f371ae2175ee4913f4499e1f2633a7b5936321eed1cdaeb6115181d290602090a15f8080610059565b63f92ee8a960e01b8152600490fd5b5f80fdfe6080806040526004361015610012575f80fd5b5f3560e01c9081635734e5e314610d3457508063635c545514610c8057806375b238fc14610c46578063c742f8e514610b0f5763ed39a17d14610053575f80fd5b34610b0b576060366003190112610b0b5767ffffffffffffffff600435818111610b0b57610085903690600401610e0d565b9061008e610d6d565b90604435908111610b0b576100a7903690600401610e0d565b825115610ac6576001600160a01b03821615610a8157805115610a30577fa02c6c64ccfececbbc818fa1413a9ddbfdcd7555c7114a15b2eae285fdd9cbdb547fa02c6c64ccfececbbc818fa1413a9ddbfdcd7555c7114a15b2eae285fdd9cbdc546001600160a01b03908116911680156109eb5781156109a657604051637f004aaf60e11b8082526307e4c70760e21b6004830152602082602481875afa9182156106d1575f92610985575b50604051818152637a0ed62760e01b6004820152602081602481885afa9081156106d1575f91610966575b50604051918252630d522b0f60e41b6004830152602082602481885afa9182156106d1575f92610945575b506001600160a01b03831615610900576001600160a01b038116156108bb576001600160a01b0382161561087657604051946101e486610dcf565b600386525f5b6060811061084c5750604051633074a07960e21b81526001600160a01b03851660048201525f81602481855afa9081156106d1575f91610832575b506040519061023382610d83565b6001600160a01b03861682525f6020830152604082015261025387610f4d565b5261025d86610f4d565b50604051633074a07960e21b81526001600160a01b03831660048201525f81602481855afa9182156106d1576024925f928391610818575b50604051906102a382610d83565b6001600160a01b03861682526020820184905260408201526102c489610f6e565b526102ce88610f6e565b50604051633074a07960e21b81526001600160a01b038616600482015292839182905afa9081156106d1575f916107f6575b506040519061030e82610d83565b6001600160a01b03841682525f6020830152604082015261032e86610f7e565b5261033885610f7e565b506040519261034684610dcf565b600384525f5b606081106107d25750604051637089a9f960e11b60208201526004815261037281610db3565b6040519161037f83610db3565b6001600160a01b03168252602082015261039884610f4d565b526103a283610f4d565b5060405163feb7ab4f60e01b6020820152600481526103c081610db3565b604051916103cd83610db3565b6001600160a01b0316825260208201526103e683610f6e565b526103f082610f6e565b506040516360c64f1760e01b60208201526060602482015261044b8161043d61041c608483018c610e82565b6001600160a01b038b16604484015282810360231901606484015289610e82565b03601f198101835282610deb565b6040519161045883610db3565b6001600160a01b03168252602082015261047182610f7e565b5261047b81610f7e565b506040519081604081019160208083015280518093526060820192602060608260051b8501019201935f905b82821061078d575050506104c4925003601f198101835282610deb565b604051926104d184610d83565b835273d1a302d1a302d1a302d1a302d1a302d1a302d1a3602084015260408301526040518092630e27019560e41b825260206004830152608482019080519160606024850152825180915260a4840190602060a48260051b8701019401915f905b8282106106dc57505050505f8361056e602096946040839560018060a01b038a8201511660448601520151602319848303016064850152610e82565b03925af19081156106d1575f916106a2575b507fa02c6c64ccfececbbc818fa1413a9ddbfdcd7555c7114a15b2eae285fdd9cbda8054945f19861461068e5761066b7f3f0cc4a4250131c2b6ade055c6b8d2ae45ac8efece322d8f052ee3a7fb27da4191600160209801809455835f527fa02c6c64ccfececbbc818fa1413a9ddbfdcd7555c7114a15b2eae285fdd9cbd8885261068360405f209560018060a01b0316978896876bffffffffffffffffffffffff60a01b825416179055865f527fa02c6c64ccfececbbc818fa1413a9ddbfdcd7555c7114a15b2eae285fdd9cbd98a528560405f2055604051938493604085526040850190610e82565b8381038b8501526001600160a01b0390911697610e82565b0390a4604051908152f35b634e487b7160e01b5f52601160045260245ffd5b6106c4915060203d6020116106ca575b6106bc8183610deb565b810190610e63565b5f610580565b503d6106b2565b6040513d5f823e3d90fd5b88860360a319018152835180516001600160a01b0316875260208101519497509495929491939092916003821015610779576040916020840152015190606060408201526020608060608301928451809452019201905f905b80821061075657505050602080600192970192019201879594939192610532565b82516001600160e01b031916845260209384019390920191600190910190610735565b634e487b7160e01b5f52602160045260245ffd5b919350916020806107c2600193605f198a82030186526040838a51878060a01b03815116845201519181858201520190610e82565b96019201920185939194926104a7565b6020906040516107e181610db3565b5f81526060838201528282880101520161034c565b61081291503d805f833e61080a8183610deb565b810190610ec0565b5f610300565b61082c91503d8085833e61080a8183610deb565b5f610295565b61084691503d805f833e61080a8183610deb565b5f610225565b60209060405161085b81610d83565b5f81525f838201526060604082015282828a010152016101ea565b60405162461bcd60e51b815260206004820152601b60248201527f4f7267616e697a6174696f6e4661636574206e6f7420666f756e6400000000006044820152606490fd5b60405162461bcd60e51b815260206004820152601b60248201527f4469616d6f6e644c6f7570654661636574206e6f7420666f756e6400000000006044820152606490fd5b60405162461bcd60e51b815260206004820152601960248201527f4469616d6f6e644375744661636574206e6f7420666f756e64000000000000006044820152606490fd5b61095f91925060203d6020116106ca576106bc8183610deb565b905f6101a9565b61097f915060203d6020116106ca576106bc8183610deb565b5f61017e565b61099f91925060203d6020116106ca576106bc8183610deb565b905f610153565b60405162461bcd60e51b815260206004820152601d60248201527f496e76616c6964204661636574526567697374727920616464726573730000006044820152606490fd5b60405162461bcd60e51b815260206004820152601e60248201527f496e76616c6964204469616d6f6e64466163746f7279206164647265737300006044820152606490fd5b60405162461bcd60e51b8152602060048201526024808201527f4f7267616e697a6174696f6e206465736372697074696f6e20697320726571756044820152631a5c995960e21b6064820152608490fd5b60405162461bcd60e51b815260206004820152601860248201527f41646d696e206164647265737320697320696e76616c696400000000000000006044820152606490fd5b60405162461bcd60e51b815260206004820152601d60248201527f4f7267616e697a6174696f6e206e616d652069732072657175697265640000006044820152606490fd5b5f80fd5b34610b0b576040366003190112610b0b576001600160a01b0360043581811690819003610b0b57610b3e610d6d565b9160ff7ff0c57e16840df040f15088dc2f81fe391c3923bec73e23a9662efc9c229c6a005460401c1615610c3457335f527f01a4eee68dd85ae21f7af43541cdad31dffdda01c908cfeea5c0dd9e8cbc10a060205260405f20600181541790555f604051600181527f4c9bdd0c8e073eb5eda2250b18d8e5121ff27b62064fbeeeed4869bb99bc5bf260203392a36bffffffffffffffffffffffff60a01b917fa02c6c64ccfececbbc818fa1413a9ddbfdcd7555c7114a15b2eae285fdd9cbdb90838254161790557fa02c6c64ccfececbbc818fa1413a9ddbfdcd7555c7114a15b2eae285fdd9cbdc9216908254161790555f80f35b604051631afcd79f60e31b8152600490fd5b34610b0b575f366003190112610b0b5760206040517fa49807205ce4d355092ef5a8a18f56e8913cf4a201fbe287825b095693c217758152f35b34610b0b576020366003190112610b0b57600435805f527fa02c6c64ccfececbbc818fa1413a9ddbfdcd7555c7114a15b2eae285fdd9cbd88060205260018060a01b03908160405f20541615610ce5576020925f52825260405f205416604051908152f35b60405162461bcd60e51b815260206004820152602160248201527f4e6f206f7267616e697a6174696f6e20666f756e6420666f72207468697320496044820152601160fa1b6064820152608490fd5b34610b0b575f366003190112610b0b576020907fa02c6c64ccfececbbc818fa1413a9ddbfdcd7555c7114a15b2eae285fdd9cbda548152f35b602435906001600160a01b0382168203610b0b57565b6060810190811067ffffffffffffffff821117610d9f57604052565b634e487b7160e01b5f52604160045260245ffd5b6040810190811067ffffffffffffffff821117610d9f57604052565b6080810190811067ffffffffffffffff821117610d9f57604052565b90601f8019910116810190811067ffffffffffffffff821117610d9f57604052565b81601f82011215610b0b5780359067ffffffffffffffff8211610d9f5760405192610e42601f8401601f191660200185610deb565b82845260208383010111610b0b57815f926020809301838601378301015290565b90816020910312610b0b57516001600160a01b0381168103610b0b5790565b91908251928382525f5b848110610eac575050825f602080949584010152601f8019910116010190565b602081830181015184830182015201610e8c565b906020908183820312610b0b57825167ffffffffffffffff93848211610b0b570181601f82011215610b0b578051938411610d9f578360051b9060405194610f0a85840187610deb565b85528380860192820101928311610b0b578301905b828210610f2d575050505090565b81516001600160e01b031981168103610b0b578152908301908301610f1f565b805115610f5a5760200190565b634e487b7160e01b5f52603260045260245ffd5b805160011015610f5a5760400190565b805160021015610f5a576060019056fea2646970667358221220d491e373358184fb1f8ac656070fdf89f17fc5d10e09666a9b74625b61740f9964736f6c63430008140033","linkReferences":{}},"methodIdentifiers":{"ADMIN_ROLE()":"75b238fc","OrganizationFactory_init(address,address)":"c742f8e5","createOrganization(string,address,string)":"ed39a17d","getOrganizationById(uint256)":"635c5455","getOrganizationCount()":"5734e5e3"},"id":8}